{
  "abi": [
    {
      "anonymous": false,
      "inputs": [
        {
          "indexed": false,
          "internalType": "bool",
          "name": "ok",
          "type": "bool"
        },
        {
          "indexed": false,
          "internalType": "uint256",
          "name": "gasUsed",
          "type": "uint256"
        }
      ],
      "name": "VerifyResult",
      "type": "event"
    },
    {
      "inputs": [
        {
          "internalType": "contract Bip340Verifier",
          "name": "verif",
          "type": "address"
        },
        {
          "internalType": "uint256",
          "name": "px",
          "type": "uint256"
        },
        {
          "internalType": "uint256",
          "name": "rx",
          "type": "uint256"
        },
        {
          "internalType": "uint256",
          "name": "s",
          "type": "uint256"
        },
        {
          "internalType": "bytes32",
          "name": "m",
          "type": "bytes32"
        }
      ],
      "name": "verifySig",
      "outputs": [
        {
          "internalType": "bool",
          "name": "",
          "type": "bool"
        }
      ],
      "stateMutability": "nonpayable",
      "type": "function"
    }
  ],
  "bytecode": {
    "object": "0x608060405234801561001057600080fd5b50610210806100206000396000f3fe608060405234801561001057600080fd5b506004361061002b5760003560e01c8063d78e50e914610030575b600080fd5b61004361003e36600461013a565b610057565b604051901515815260200160405180910390f35b6000805a604051630fde6e5560e01b8152600481018890526024810187905260448101869052606481018590529091506000906001600160a01b03891690630fde6e55906084016020604051808303816000875af11580156100bd573d6000803e3d6000fd5b505050506040513d601f19601f820116820180604052508101906100e1919061018a565b905060005a90507f4d8ce7690bba39f09d933cff966e403c6132afc391b96e03a7bbae8469f6c25f8261011483866101b3565b60408051921515835260208301919091520160405180910390a150505095945050505050565b600080600080600060a0868803121561015257600080fd5b85356001600160a01b038116811461016957600080fd5b97602087013597506040870135966060810135965060800135945092505050565b60006020828403121561019c57600080fd5b815180151581146101ac57600080fd5b9392505050565b818103818111156101d457634e487b7160e01b600052601160045260246000fd5b9291505056fea2646970667358221220b051824d81b96aebd84cfe14d6d7d24cd09a6045195c0b63a73019150a46287c64736f6c63430008140033",
    "linkReferences": {}
  },
  "methodIdentifiers": {
    "verifySig(address,uint256,uint256,uint256,bytes32)": "d78e50e9"
  },
  "id": 20
}