{
  "abi": [
    {
      "inputs": [
        {
          "internalType": "uint256",
          "name": "px",
          "type": "uint256"
        },
        {
          "internalType": "uint256",
          "name": "rx",
          "type": "uint256"
        },
        {
          "internalType": "uint256",
          "name": "s",
          "type": "uint256"
        },
        {
          "internalType": "bytes32",
          "name": "m",
          "type": "bytes32"
        }
      ],
      "name": "verify",
      "outputs": [
        {
          "internalType": "bool",
          "name": "",
          "type": "bool"
        }
      ],
      "stateMutability": "pure",
      "type": "function"
    },
    {
      "inputs": [
        {
          "internalType": "uint256",
          "name": "_px",
          "type": "uint256"
        },
        {
          "internalType": "uint256",
          "name": "_py",
          "type": "uint256"
        },
        {
          "internalType": "uint256",
          "name": "rx",
          "type": "uint256"
        },
        {
          "internalType": "uint256",
          "name": "s",
          "type": "uint256"
        },
        {
          "internalType": "bytes32",
          "name": "m",
          "type": "bytes32"
        }
      ],
      "name": "verifyFull",
      "outputs": [
        {
          "internalType": "bool",
          "name": "",
          "type": "bool"
        }
      ],
      "stateMutability": "pure",
      "type": "function"
    }
  ],
  "bytecode": {
    "object": "0x608060405234801561001057600080fd5b50610e23806100206000396000f3fe608060405234801561001057600080fd5b50600436106100365760003560e01c80630fde6e551461003b5780635295d29614610062575b600080fd5b61004e610049366004610ca7565b610075565b604051901515815260200160405180910390f35b61004e610070366004610cd9565b6100ea565b60006401000003d019851061008c575060006100e2565b60008061009887610295565b91509150806100ac576000925050506100e2565b6100c18783600060076401000003d01961035a565b6100d0576000925050506100e2565b6100dd87838888886100ea565b925050505b949350505050565b60006401000003d01984101580610113575070014551231950b75fc4402da1732fc9bebe198310155b156101205750600061028c565b600061012d858885610413565b9050600080888882808061018c8b7f79be667ef9dcbbac55a06295ce870b07029bfcdb2dce28d959f2815b16f817987f483ada7726a3c4655da4fbfc0e1108a8fd17b448a68554199c47d08ffb10d4b86001856401000003d0196104e7565b92509250925060008060006101ad8b8989600160006401000003d0196104e7565b9250925092506101c483826401000003d019610569565b6101d587866401000003d019610569565b036101ee5760009b50505050505050505050505061028c565b60006401000003d0196102018482610d2a565b61020b9190610d53565b905060008060006102278a8a8a8a888a6401000003d0196105a8565b92509250925061023f8383836401000003d0196108e0565b909e509c50508c159a50508915985061025f975050505050505050575080155b15610270576000935050505061028c565b6001811615610285576000935050505061028c565b5085149150505b95945050505050565b6000806401000003d0198160078286106102b757506000958695509350505050565b600083806102c7576102c7610d3d565b84806102d5576102d5610d3d565b8386806102e4576102e4610d3d565b868b090885806102f6576102f6610d3d565b868061030457610304610d3d565b8a8b098a0908905061032d81600461031d876001610d67565b6103279190610d7a565b8661094f565b905060006001821615610349576103448286610d2a565b61034b565b815b98600198509650505050505050565b60008515806103695750818610155b80610372575084155b8061037d5750818510155b1561038a5750600061028c565b6000828061039a5761039a610d3d565b8687099050600083806103af576103af610d3d565b8885806103be576103be610d3d565b8a8b0909905085156103ee5783806103d8576103d8610d3d565b84806103e6576103e6610d3d565b878a09820890505b841561040857838061040257610402610d3d565b85820890505b149695505050505050565b604080517f7bb52d7a9fef58323eb1bf7a407db382d2f3f2d81bb1224f49fe518f6d48d37c60208201819052918101829052606081018590526080810184905260a081018390526000919070014551231950b75fc4402da1732fc9bebe199060029060c00160408051601f198184030181529082905261049291610d8e565b602060405180830381855afa1580156104af573d6000803e3d6000fd5b5050506040513d601f19601f820116820180604052508101906104d29190610dbd565b6104dc9190610d53565b9150505b9392505050565b60008060008860000361050157508691508590508461055d565b8860008060015b831561055457600184161561052e576105268383838f8f8f8e6105a8565b919450925090505b610539600285610d7a565b93506105488c8c8c8c8c610a18565b919d509b509950610508565b91955093509150505b96509650969350505050565b6000806105768484610bbb565b90506000838061058857610588610d3d565b8283099050838061059b5761059b610d3d565b8187099695505050505050565b60008080891580156105b8575088155b156105ca5750859150849050836108d3565b861580156105d6575085155b156105e85750889150879050866108d3565b6105f0610c89565b84806105fe576105fe610d3d565b898a098152848061061157610611610d3d565b81518a096020820152848061062857610628610d3d565b8687096040820152848061063e5761063e610d3d565b604082015187096060820152604080516080810190915280868061066457610664610d3d565b60408401518e098152602001868061067e5761067e610d3d565b60608401518d098152602001868061069857610698610d3d565b83518b09815260200186806106af576106af610d3d565b60208401518a099052604081015181519192501415806106d757506060810151602082015114155b6107285760405162461bcd60e51b815260206004820152601e60248201527f557365206a6163446f75626c652066756e6374696f6e20696e7374656164000060448201526064015b60405180910390fd5b610730610c89565b858061073e5761073e610d3d565b825161074a9088610d2a565b6040840151088152858061076057610760610d3d565b602083015161076f9088610d2a565b6060840151086020820152858061078857610788610d3d565b815180096040820152858061079f5761079f610d3d565b81516040830151096060820152600086806107bc576107bc610d3d565b60608301516107cb9089610d2a565b88806107d9576107d9610d3d565b6020850151800908905086806107f1576107f1610d3d565b87806107ff576107ff610d3d565b888061080d5761080d610d3d565b60408501518651096002096108229089610d2a565b820890506000878061083657610836610d3d565b888061084457610844610d3d565b61084e848b610d2a565b8a8061085c5761085c610d3d565b6040870151885109086020850151099050878061087b5761087b610d3d565b888061088957610889610d3d565b606085015160208701510961089e908a610d2a565b82089050600088806108b2576108b2610d3d565b89806108c0576108c0610d3d565b8b8f098551099297509095509093505050505b9750975097945050505050565b60008060006108ef8585610bbb565b90506000848061090157610901610d3d565b82830990506000858061091657610916610d3d565b828a0990506000868061092b5761092b610d3d565b878061093957610939610d3d565b8486098a09919a91995090975050505050505050565b6000816000036109935760405162461bcd60e51b815260206004820152600f60248201526e4d6f64756c7573206973207a65726f60881b604482015260640161071f565b836000036109a3575060006104e0565b826000036109b3575060016104e0565b6001600160ff1b5b8015610a0f57838186161515870a85848509099150836002820486161515870a85848509099150836004820486161515870a85848509099150836008820486161515870a85848509099150601090046109bb565b50949350505050565b600080600085600003610a32575086915085905084610bb0565b60008480610a4257610a42610d3d565b898a09905060008580610a5757610a57610d3d565b898a09905060008680610a6c57610a6c610d3d565b898a09905060008780610a8157610a81610d3d565b8880610a8f57610a8f610d3d565b848e09600409905060008880610aa757610aa7610d3d565b8980610ab557610ab5610d3d565b8a80610ac357610ac3610d3d565b8586098c098a80610ad657610ad6610d3d565b876003090890508880610aeb57610aeb610d3d565b8980610af957610af9610d3d565b838408610b06908b610d2a565b8a80610b1457610b14610d3d565b8384090894508880610b2857610b28610d3d565b8980610b3657610b36610d3d565b8a80610b4457610b44610d3d565b868709600809610b54908b610d2a565b8a80610b6257610b62610d3d565b8b80610b7057610b70610d3d565b610b7a898e610d2a565b860884090893508880610b8f57610b8f610d3d565b8980610b9d57610b9d610d3d565b8c8e096002099497509295509293505050505b955095509592505050565b60008215801590610bcc5750818314155b8015610bd757508115155b610c145760405162461bcd60e51b815260206004820152600e60248201526d24b73b30b634b210373ab6b132b960911b604482015260640161071f565b6000600183825b8615610c7c57610c2b8783610d7a565b9050828680610c3c57610c3c610d3d565b8780610c4a57610c4a610d3d565b858409610c579089610d2a565b8608909450925086610c698183610dd6565b610c739084610d2a565b97509150610c1b565b5091925050505b92915050565b60405180608001604052806004906020820280368337509192915050565b60008060008060808587031215610cbd57600080fd5b5050823594602084013594506040840135936060013592509050565b600080600080600060a08688031215610cf157600080fd5b505083359560208501359550604085013594606081013594506080013592509050565b634e487b7160e01b600052601160045260246000fd5b81810381811115610c8357610c83610d14565b634e487b7160e01b600052601260045260246000fd5b600082610d6257610d62610d3d565b500690565b80820180821115610c8357610c83610d14565b600082610d8957610d89610d3d565b500490565b6000825160005b81811015610daf5760208186018101518583015201610d95565b506000920191825250919050565b600060208284031215610dcf57600080fd5b5051919050565b8082028115828204841417610c8357610c83610d1456fea264697066735822122008e85398405bb406a14e231c5184f51e3bfb9e13f6a6d1b684a6744b6f6103ec64736f6c63430008140033",
    "linkReferences": {}
  },
  "methodIdentifiers": {
    "verify(uint256,uint256,uint256,bytes32)": "0fde6e55",
    "verifyFull(uint256,uint256,uint256,uint256,bytes32)": "5295d296"
  },
  "id": 1
}