{
  "abi": [
    {
      "inputs": [
        {
          "internalType": "uint256",
          "name": "px",
          "type": "uint256"
        },
        {
          "internalType": "uint256[]",
          "name": "rxv",
          "type": "uint256[]"
        },
        {
          "internalType": "uint256[]",
          "name": "sv",
          "type": "uint256[]"
        },
        {
          "internalType": "bytes32[]",
          "name": "mv",
          "type": "bytes32[]"
        },
        {
          "internalType": "uint256[]",
          "name": "av",
          "type": "uint256[]"
        }
      ],
      "name": "verifyBatch",
      "outputs": [
        {
          "internalType": "bool",
          "name": "",
          "type": "bool"
        }
      ],
      "stateMutability": "nonpayable",
      "type": "function"
    },
    {
      "inputs": [
        {
          "internalType": "uint256",
          "name": "px",
          "type": "uint256"
        },
        {
          "internalType": "uint256",
          "name": "py",
          "type": "uint256"
        },
        {
          "internalType": "uint256[]",
          "name": "rxv",
          "type": "uint256[]"
        },
        {
          "internalType": "uint256[]",
          "name": "sv",
          "type": "uint256[]"
        },
        {
          "internalType": "bytes32[]",
          "name": "mv",
          "type": "bytes32[]"
        },
        {
          "internalType": "uint256[]",
          "name": "av",
          "type": "uint256[]"
        }
      ],
      "name": "verifyBatchFull",
      "outputs": [
        {
          "internalType": "bool",
          "name": "",
          "type": "bool"
        }
      ],
      "stateMutability": "nonpayable",
      "type": "function"
    }
  ],
  "bytecode": {
    "object": "0x608060405234801561001057600080fd5b5061151c806100206000396000f3fe608060405234801561001057600080fd5b50600436106100365760003560e01c80635a9c443c1461003b57806382bc19dd14610062575b600080fd5b61004e610049366004611268565b610075565b604051901515815260200160405180910390f35b61004e610070366004611327565b610264565b835160009060018110156100b95760405162461bcd60e51b815260206004820152600660248201526515908e96159360d21b60448201526064015b60405180910390fd5b808651146100f25760405162461bcd60e51b815260206004820152600660248201526515908e94959360d21b60448201526064016100b0565b8085511461012b5760405162461bcd60e51b815260206004820152600660248201526515908e94d59360d21b60448201526064016100b0565b808451146101645760405162461bcd60e51b815260206004820152600660248201526515908e93559360d21b60448201526064016100b0565b61016f6001826113f4565b8351146101a75760405162461bcd60e51b815260206004820152600660248201526515908e90559360d21b60448201526064016100b0565b5060008080806101b789876102a2565b9150915060001982036101d157600094505050505061025a565b6000806101e18d8d8d8c8c61041d565b9150915060001982036101fd576000965050505050505061025a565b6102128484848460006401000003d019610597565b80965081975050505050505060008061022b888761061f565b91509150600019820361024557600094505050505061025a565b838214801561025357508281145b9450505050505b9695505050505050565b6000806000610272886107af565b915091508061028657600092505050610299565b610294888389898989610075565b925050505b95945050505050565b600080600080856000815181106102bb576102bb611407565b60200260200101516000915091506000806102d5846107af565b91509150806102f05760001960009550955050505050610416565b50905060015b8551811161040f57600087828151811061031257610312611407565b6020026020010151905060008760018461032c91906113f4565b8151811061033c5761033c611407565b602002602001015190506401000003d0198210610366576000196000965096505050505050610416565b600080610372846107af565b91509150806103905760001960009850985050505050505050610416565b6103a58483600060076401000003d019610874565b6103be5760001960009850985050505050505050610416565b6000806103d585878660006401000003d01961092d565b915091506103ee8989848460006401000003d019610597565b809950819a50505050505050505080806104079061141d565b9150506102f6565b5090925090505b9250929050565b6000806000806000809150915060006104718860008151811061044257610442611407565b602002602001015160001b8b60001b8960008151811061046457610464611407565b6020026020010151610967565b9050610487818b8b60006401000003d01961092d565b9093509150600190505b855181116105885787518a908a906000908b90859081106104b4576104b4611407565b6020026020010151905060008a85815181106104d2576104d2611407565b6020026020010151905060008a6001876104ec91906113f4565b815181106104fc576104fc611407565b6020908102919091010151905060008080610518868987610967565b9050600070014551231950b75fc4402da1732fc9bebe198286099050610548818a8a60006401000003d01961092d565b909450925061056691508b90508a848460006401000003d019610597565b809a50819b5050505050505050505080806105809061141d565b915050610491565b50909890975095505050505050565b6000806000806000888b036105e75785806105b4576105b4611436565b888b086000036105cd5760008094509450505050610614565b6105db8b8b60018a8a610a3b565b91945092509050610600565b6105f88b8b60018c8c60018c610bde565b919450925090505b61060c83838389610f11565b945094505050505b965096945050505050565b60008060008460008151811061063757610637611407565b6020026020010151905070014551231950b75fc4402da1732fc9bebe1981106106695750600019915060009050610416565b60015b8451811161074e57600086828151811061068857610688611407565b602002602001015190506000866001846106a291906113f4565b815181106106b2576106b2611407565b6020026020010151905070014551231950b75fc4402da1732fc9bebe19821015806106ef575070014551231950b75fc4402da1732fc9bebe198110155b156107065760001960009550955050505050610416565b600070014551231950b75fc4402da1732fc9bebe19838309905070014551231950b75fc4402da1732fc9bebe19818608945050505080806107469061141d565b91505061066c565b506107a3817f79be667ef9dcbbac55a06295ce870b07029bfcdb2dce28d959f2815b16f817987f483ada7726a3c4655da4fbfc0e1108a8fd17b448a68554199c47d08ffb10d4b860006401000003d01961092d565b92509250509250929050565b6000806401000003d0198160078286106107d157506000958695509350505050565b600083806107e1576107e1611436565b84806107ef576107ef611436565b8386806107fe576107fe611436565b868b0908858061081057610810611436565b868061081e5761081e611436565b8a8b098a0908905061084781600461083787600161144c565b610841919061145f565b86610f80565b9050600060018216156108635761085e82866113f4565b610865565b815b98600198509650505050505050565b60008515806108835750818610155b8061088c575084155b806108975750818510155b156108a457506000610299565b600082806108b4576108b4611436565b8687099050600083806108c9576108c9611436565b8885806108d8576108d8611436565b8a8b0909905085156109085783806108f2576108f2611436565b848061090057610900611436565b878a09820890505b841561092257838061091c5761091c611436565b85820890505b149695505050505050565b60008060008060006109448a8a8a60018b8b611049565b92509250925061095683838389610f11565b945094505050509550959350505050565b604080517f7bb52d7a9fef58323eb1bf7a407db382d2f3f2d81bb1224f49fe518f6d48d37c60208201819052918101829052606081018590526080810184905260a081018390526000919070014551231950b75fc4402da1732fc9bebe199060029060c00160408051601f19818403018152908290526109e691611473565b602060405180830381855afa158015610a03573d6000803e3d6000fd5b5050506040513d601f19601f82011682018060405250810190610a2691906114a2565b610a3091906114bb565b9150505b9392505050565b600080600085600003610a55575086915085905084610bd3565b60008480610a6557610a65611436565b898a09905060008580610a7a57610a7a611436565b898a09905060008680610a8f57610a8f611436565b898a09905060008780610aa457610aa4611436565b8880610ab257610ab2611436565b848e09600409905060008880610aca57610aca611436565b8980610ad857610ad8611436565b8a80610ae657610ae6611436565b8586098c098a80610af957610af9611436565b876003090890508880610b0e57610b0e611436565b8980610b1c57610b1c611436565b838408610b29908b6113f4565b8a80610b3757610b37611436565b8384090894508880610b4b57610b4b611436565b8980610b5957610b59611436565b8a80610b6757610b67611436565b868709600809610b77908b6113f4565b8a80610b8557610b85611436565b8b80610b9357610b93611436565b610b9d898e6113f4565b860884090893508880610bb257610bb2611436565b8980610bc057610bc0611436565b8c8e096002099497509295509293505050505b955095509592505050565b6000808089158015610bee575088155b15610c00575085915084905083610f04565b86158015610c0c575085155b15610c1e575088915087905086610f04565b610c26611199565b8480610c3457610c34611436565b898a0981528480610c4757610c47611436565b81518a0960208201528480610c5e57610c5e611436565b86870960408201528480610c7457610c74611436565b6040820151870960608201526040805160808101909152808680610c9a57610c9a611436565b60408401518e0981526020018680610cb457610cb4611436565b60608401518d0981526020018680610cce57610cce611436565b83518b0981526020018680610ce557610ce5611436565b60208401518a09905260408101518151919250141580610d0d57506060810151602082015114155b610d595760405162461bcd60e51b815260206004820152601e60248201527f557365206a6163446f75626c652066756e6374696f6e20696e7374656164000060448201526064016100b0565b610d61611199565b8580610d6f57610d6f611436565b8251610d7b90886113f4565b60408401510881528580610d9157610d91611436565b6020830151610da090886113f4565b60608401510860208201528580610db957610db9611436565b8151800960408201528580610dd057610dd0611436565b8151604083015109606082015260008680610ded57610ded611436565b6060830151610dfc90896113f4565b8880610e0a57610e0a611436565b602085015180090890508680610e2257610e22611436565b8780610e3057610e30611436565b8880610e3e57610e3e611436565b6040850151865109600209610e5390896113f4565b8208905060008780610e6757610e67611436565b8880610e7557610e75611436565b610e7f848b6113f4565b8a80610e8d57610e8d611436565b60408701518851090860208501510990508780610eac57610eac611436565b8880610eba57610eba611436565b6060850151602087015109610ecf908a6113f4565b8208905060008880610ee357610ee3611436565b8980610ef157610ef1611436565b8b8f098551099297509095509093505050505b9750975097945050505050565b6000806000610f2085856110cb565b905060008480610f3257610f32611436565b828309905060008580610f4757610f47611436565b828a09905060008680610f5c57610f5c611436565b8780610f6a57610f6a611436565b8486098a09919a91995090975050505050505050565b600081600003610fc45760405162461bcd60e51b815260206004820152600f60248201526e4d6f64756c7573206973207a65726f60881b60448201526064016100b0565b83600003610fd457506000610a34565b82600003610fe457506001610a34565b6001600160ff1b5b801561104057838186161515870a85848509099150836002820486161515870a85848509099150836004820486161515870a85848509099150836008820486161515870a8584850909915060109004610fec565b50949350505050565b6000806000886000036110635750869150859050846110bf565b8860008060015b83156110b6576001841615611090576110888383838f8f8f8e610bde565b919450925090505b61109b60028561145f565b93506110aa8c8c8c8c8c610a3b565b919d509b50995061106a565b91955093509150505b96509650969350505050565b600082158015906110dc5750818314155b80156110e757508115155b6111245760405162461bcd60e51b815260206004820152600e60248201526d24b73b30b634b210373ab6b132b960911b60448201526064016100b0565b6000600183825b861561118c5761113b878361145f565b905082868061114c5761114c611436565b878061115a5761115a611436565b85840961116790896113f4565b860890945092508661117981836114cf565b61118390846113f4565b9750915061112b565b5091925050505b92915050565b60405180608001604052806004906020820280368337509192915050565b634e487b7160e01b600052604160045260246000fd5b600082601f8301126111de57600080fd5b8135602067ffffffffffffffff808311156111fb576111fb6111b7565b8260051b604051601f19603f83011681018181108482111715611220576112206111b7565b60405293845285810183019383810192508785111561123e57600080fd5b83870191505b8482101561125d57813583529183019190830190611244565b979650505050505050565b60008060008060008060c0878903121561128157600080fd5b8635955060208701359450604087013567ffffffffffffffff808211156112a757600080fd5b6112b38a838b016111cd565b955060608901359150808211156112c957600080fd5b6112d58a838b016111cd565b945060808901359150808211156112eb57600080fd5b6112f78a838b016111cd565b935060a089013591508082111561130d57600080fd5b5061131a89828a016111cd565b9150509295509295509295565b600080600080600060a0868803121561133f57600080fd5b85359450602086013567ffffffffffffffff8082111561135e57600080fd5b61136a89838a016111cd565b9550604088013591508082111561138057600080fd5b61138c89838a016111cd565b945060608801359150808211156113a257600080fd5b6113ae89838a016111cd565b935060808801359150808211156113c457600080fd5b506113d1888289016111cd565b9150509295509295909350565b634e487b7160e01b600052601160045260246000fd5b81810381811115611193576111936113de565b634e487b7160e01b600052603260045260246000fd5b60006001820161142f5761142f6113de565b5060010190565b634e487b7160e01b600052601260045260246000fd5b80820180821115611193576111936113de565b60008261146e5761146e611436565b500490565b6000825160005b81811015611494576020818601810151858301520161147a565b506000920191825250919050565b6000602082840312156114b457600080fd5b5051919050565b6000826114ca576114ca611436565b500690565b8082028115828204841417611193576111936113de56fea2646970667358221220392b184efd9f0679e1c974f2654502fb72700ec96db34b7aafc116ddc99b7c1464736f6c63430008140033",
    "linkReferences": {}
  },
  "methodIdentifiers": {
    "verifyBatch(uint256,uint256[],uint256[],bytes32[],uint256[])": "82bc19dd",
    "verifyBatchFull(uint256,uint256,uint256[],uint256[],bytes32[],uint256[])": "5a9c443c"
  },
  "id": 1
}