{
  "abi": [
    {
      "inputs": [
        {
          "internalType": "uint256",
          "name": "px",
          "type": "uint256"
        },
        {
          "internalType": "uint256",
          "name": "rx",
          "type": "uint256"
        },
        {
          "internalType": "uint256",
          "name": "s",
          "type": "uint256"
        },
        {
          "internalType": "bytes32",
          "name": "m",
          "type": "bytes32"
        }
      ],
      "name": "verify",
      "outputs": [
        {
          "internalType": "bool",
          "name": "",
          "type": "bool"
        }
      ],
      "stateMutability": "nonpayable",
      "type": "function"
    }
  ],
  "bytecode": {
    "object": "0x608060405234801561001057600080fd5b506105b0806100206000396000f3fe608060405234801561001057600080fd5b506004361061002b5760003560e01c80630fde6e5514610030575b600080fd5b61004361003e366004610480565b610057565b604051901515815260200160405180910390f35b60006401000003d0198510158061007457506401000003d0198410155b80610091575070014551231950b75fc4402da1732fc9bebe198310155b1561009e575060006101b7565b6000806100aa866101bf565b91509150806100be576000925050506101b7565b60006100cb87898761021a565b9050600070014551231950b75fc4402da1732fc9bebe198988096101019070014551231950b75fc4402da1732fc9bebe196104de565b9050600070014551231950b75fc4402da1732fc9bebe198a84096101379070014551231950b75fc4402da1732fc9bebe196104de565b60408051600080825260208201808452869052601b92820192909252606081018d9052608081018390529192509060019060a0016020604051602081039080840390855afa15801561018d573d6000803e3d6000fd5b505050602060405103519050856001600160a01b0316816001600160a01b03161496505050505050505b949350505050565b6000806000806101ce856102ee565b91509150806101e4575060009485945092505050565b50604080516020808201969096528082019290925280518083038201815260609092019052805193019290922092600192509050565b604080517f7bb52d7a9fef58323eb1bf7a407db382d2f3f2d81bb1224f49fe518f6d48d37c60208201819052918101829052606081018590526080810184905260a081018390526000919070014551231950b75fc4402da1732fc9bebe199060029060c00160408051601f1981840301815290829052610299916104f7565b602060405180830381855afa1580156102b6573d6000803e3d6000fd5b5050506040513d601f19601f820116820180604052508101906102d99190610526565b6102e3919061053f565b9150505b9392505050565b6000806401000003d01981600782861061031057506000958695509350505050565b60008380610320576103206104b2565b848061032e5761032e6104b2565b83868061033d5761033d6104b2565b868b0908858061034f5761034f6104b2565b868061035d5761035d6104b2565b8a8b098a09089050610386816004610376876001610553565b6103809190610566565b866103b3565b9050600060018216156103a25761039d82866104de565b6103a4565b815b98600198509650505050505050565b6000816000036103fb5760405162461bcd60e51b815260206004820152600f60248201526e4d6f64756c7573206973207a65726f60881b604482015260640160405180910390fd5b8360000361040b575060006102e7565b8260000361041b575060016102e7565b6001600160ff1b5b801561047757838186161515870a85848509099150836002820486161515870a85848509099150836004820486161515870a85848509099150836008820486161515870a8584850909915060109004610423565b50949350505050565b6000806000806080858703121561049657600080fd5b5050823594602084013594506040840135936060013592509050565b634e487b7160e01b600052601260045260246000fd5b634e487b7160e01b600052601160045260246000fd5b818103818111156104f1576104f16104c8565b92915050565b6000825160005b8181101561051857602081860181015185830152016104fe565b506000920191825250919050565b60006020828403121561053857600080fd5b5051919050565b60008261054e5761054e6104b2565b500690565b808201808211156104f1576104f16104c8565b600082610575576105756104b2565b50049056fea26469706673582212202cb58811da457a5efdd71360e323b7784c808f3e9545adc31451ecc707dc251064736f6c63430008140033",
    "linkReferences": {}
  },
  "methodIdentifiers": {
    "verify(uint256,uint256,uint256,bytes32)": "0fde6e55"
  },
  "id": 2
}