{
  "abi": [
    {
      "inputs": [],
      "name": "AA",
      "outputs": [
        {
          "internalType": "uint256",
          "name": "",
          "type": "uint256"
        }
      ],
      "stateMutability": "view",
      "type": "function"
    },
    {
      "inputs": [],
      "name": "BB",
      "outputs": [
        {
          "internalType": "uint256",
          "name": "",
          "type": "uint256"
        }
      ],
      "stateMutability": "view",
      "type": "function"
    },
    {
      "inputs": [],
      "name": "GX",
      "outputs": [
        {
          "internalType": "uint256",
          "name": "",
          "type": "uint256"
        }
      ],
      "stateMutability": "view",
      "type": "function"
    },
    {
      "inputs": [],
      "name": "GY",
      "outputs": [
        {
          "internalType": "uint256",
          "name": "",
          "type": "uint256"
        }
      ],
      "stateMutability": "view",
      "type": "function"
    },
    {
      "inputs": [],
      "name": "NN",
      "outputs": [
        {
          "internalType": "uint256",
          "name": "",
          "type": "uint256"
        }
      ],
      "stateMutability": "view",
      "type": "function"
    },
    {
      "inputs": [],
      "name": "PP",
      "outputs": [
        {
          "internalType": "uint256",
          "name": "",
          "type": "uint256"
        }
      ],
      "stateMutability": "view",
      "type": "function"
    },
    {
      "inputs": [
        {
          "internalType": "uint256",
          "name": "privKey",
          "type": "uint256"
        }
      ],
      "name": "derivePubKey",
      "outputs": [
        {
          "internalType": "uint256",
          "name": "",
          "type": "uint256"
        },
        {
          "internalType": "uint256",
          "name": "",
          "type": "uint256"
        }
      ],
      "stateMutability": "pure",
      "type": "function"
    }
  ],
  "bytecode": {
    "object": "0x61096461003a600b82828239805160001a60731461002d57634e487b7160e01b600052600060045260246000fd5b30600052607381538281f3fe73000000000000000000000000000000000000000030146080604052600436106100875760003560e01c80639870e2a4116100655780639870e2a4146100f5578063997da8d41461010e578063bc9e2bcf14610116578063eeeac01e1461013e57600080fd5b806303a507be1461008c5780635727dc5c146100c65780637a308a4c146100ce575b600080fd5b6100b37f79be667ef9dcbbac55a06295ce870b07029bfcdb2dce28d959f2815b16f8179881565b6040519081526020015b60405180910390f35b6100b3600781565b6100b37f483ada7726a3c4655da4fbfc0e1108a8fd17b448a68554199c47d08ffb10d4b881565b6100b370014551231950b75fc4402da1732fc9bebe1981565b6100b3600081565b61012961012436600461089d565b61014b565b604080519283526020830191909152016100bd565b6100b36401000003d01981565b6000806101a2837f79be667ef9dcbbac55a06295ce870b07029bfcdb2dce28d959f2815b16f817987f483ada7726a3c4655da4fbfc0e1108a8fd17b448a68554199c47d08ffb10d4b860006401000003d0196101ab565b91509150915091565b60008060008060006101c28a8a8a60018b8b6101e5565b9250925092506101d483838389610267565b945094505050509550959350505050565b6000806000886000036101ff57508691508590508461025b565b8860008060015b831561025257600184161561022c576102248383838f8f8f8e6102d6565b919450925090505b6102376002856108e2565b93506102468c8c8c8c8c61060e565b919d509b509950610206565b91955093509150505b96509650969350505050565b600080600061027685856107b1565b905060008480610288576102886108b6565b82830990506000858061029d5761029d6108b6565b828a099050600086806102b2576102b26108b6565b87806102c0576102c06108b6565b8486098a09919a91995090975050505050505050565b60008080891580156102e6575088155b156102f8575085915084905083610601565b86158015610304575085155b15610316575088915087905086610601565b61031e61087f565b848061032c5761032c6108b6565b898a098152848061033f5761033f6108b6565b81518a0960208201528480610356576103566108b6565b8687096040820152848061036c5761036c6108b6565b6040820151870960608201526040805160808101909152808680610392576103926108b6565b60408401518e09815260200186806103ac576103ac6108b6565b60608401518d09815260200186806103c6576103c66108b6565b83518b09815260200186806103dd576103dd6108b6565b60208401518a0990526040810151815191925014158061040557506060810151602082015114155b6104565760405162461bcd60e51b815260206004820152601e60248201527f557365206a6163446f75626c652066756e6374696f6e20696e7374656164000060448201526064015b60405180910390fd5b61045e61087f565b858061046c5761046c6108b6565b82516104789088610904565b6040840151088152858061048e5761048e6108b6565b602083015161049d9088610904565b606084015108602082015285806104b6576104b66108b6565b81518009604082015285806104cd576104cd6108b6565b81516040830151096060820152600086806104ea576104ea6108b6565b60608301516104f99089610904565b8880610507576105076108b6565b60208501518009089050868061051f5761051f6108b6565b878061052d5761052d6108b6565b888061053b5761053b6108b6565b60408501518651096002096105509089610904565b8208905060008780610564576105646108b6565b8880610572576105726108b6565b61057c848b610904565b8a8061058a5761058a6108b6565b604087015188510908602085015109905087806105a9576105a96108b6565b88806105b7576105b76108b6565b60608501516020870151096105cc908a610904565b82089050600088806105e0576105e06108b6565b89806105ee576105ee6108b6565b8b8f098551099297509095509093505050505b9750975097945050505050565b6000806000856000036106285750869150859050846107a6565b60008480610638576106386108b6565b898a0990506000858061064d5761064d6108b6565b898a09905060008680610662576106626108b6565b898a09905060008780610677576106776108b6565b8880610685576106856108b6565b848e0960040990506000888061069d5761069d6108b6565b89806106ab576106ab6108b6565b8a806106b9576106b96108b6565b8586098c098a806106cc576106cc6108b6565b8760030908905088806106e1576106e16108b6565b89806106ef576106ef6108b6565b8384086106fc908b610904565b8a8061070a5761070a6108b6565b838409089450888061071e5761071e6108b6565b898061072c5761072c6108b6565b8a8061073a5761073a6108b6565b86870960080961074a908b610904565b8a80610758576107586108b6565b8b80610766576107666108b6565b610770898e610904565b860884090893508880610785576107856108b6565b8980610793576107936108b6565b8c8e096002099497509295509293505050505b955095509592505050565b600082158015906107c25750818314155b80156107cd57508115155b61080a5760405162461bcd60e51b815260206004820152600e60248201526d24b73b30b634b210373ab6b132b960911b604482015260640161044d565b6000600183825b86156108725761082187836108e2565b9050828680610832576108326108b6565b8780610840576108406108b6565b85840961084d9089610904565b860890945092508661085f8183610917565b6108699084610904565b97509150610811565b5091925050505b92915050565b60405180608001604052806004906020820280368337509192915050565b6000602082840312156108af57600080fd5b5035919050565b634e487b7160e01b600052601260045260246000fd5b634e487b7160e01b600052601160045260246000fd5b6000826108ff57634e487b7160e01b600052601260045260246000fd5b500490565b81810381811115610879576108796108cc565b8082028115828204841417610879576108796108cc56fea2646970667358221220ab75eff659abbdd3332f97fac84f1330804027913f9f14c78628e48d83d0cc2c64736f6c63430008140033",
    "linkReferences": {}
  },
  "methodIdentifiers": {
    "AA()": "997da8d4",
    "BB()": "5727dc5c",
    "GX()": "03a507be",
    "GY()": "7a308a4c",
    "NN()": "9870e2a4",
    "PP()": "eeeac01e",
    "derivePubKey(uint256)": "bc9e2bcf"
  },
  "id": 23
}